S010000052656365697665722E73726563DF
S113000071C000008EC000008CC000008AC00000D7
S113001088C0000086C0000084C0000082C00000C8
S113002080C0000065C300007CC000007AC00000EE
S113003078C0000076C0000074C0000072C00000E8
S113004070C000006EC000006CC000006AC00000F8
S113005068C0000066C0000064C0000062C0000008
S113006060C000005EC000005CC000005AC0000018
S113007058C0000056C0000054C0000052C0000028
S113008050C000004EC000004CC000004AC0000038
S113009048C0000046C0000044C0000042C0000048
S11300A040C000003EC000003CC000003AC0000058
S11300B038C0000036C0000034C0000032C0000068
S11300C030C000002EC000002CC000002AC0000078
S11300D028C0000026C0000024C0000022C0000088
S11300E020C0000011241FBECFEFD1E2DEBFCDBF80
S11300F000E00CBF13E0A0E0B2E0E8E9FDE000E0BE
S11301000BBF02C007900D92A832B107D9F726E0C1
S1130110A8E2B3E001C01D92AF34B207E1F716D2F2
S113012039C66ECF2F923F924F925F926F927F9219
S11301308F929F92AF92BF92CF92DF92EF92FF92F3
S11301400F931F93CF93DF93CDB7DEB760970FB6AE
S1130150F894DEBF0FBECDBF3C018B012A01F22E05
S11301601F936F9382E492E09F938F9331D30F9008
S11301700F900F900F90101611060CF0C2C043019F
S1130180600E711E212C312C0EE012E05401D401BA
S11301908D914D011F928F931F930F9319D3322C7E
S11301A02224F5018081282A0F900F900F900F9040
S11301B08614970459F73F922F9289E192E09F9316
S11301C08F9306D30F900F900F900F90F11002C0F1
S11301D0322C2224920140E050E060E070E0CB0138
S11301E049863A874B875C876D877E878F87988B94
S11301F03FEF2316310408F494C0A10160E070E0DD
S113020080E090E0DC0129825A836B837C838D83B8
S11302109E83AF83B88729853A854B855C856D8538
S11302207E858F859889A980BA80C12CD12CE12C38
S1130230F12C00E010E0C3D2B0F5822E932E442EB0
S1130240752E662E572EF82FE92F282D392D442D83
S1130250572D662D752D8F2F9E2F01E079D2822E7A
S1130260932E442E752E662E572EF82FE92FA98033
S1130270BA80CB80DC80ED80FE800F8118859FD210
S113028020F3572D8F2F9E2F282D392D662D752D58
S113029001E079D2422E532E642E752E862E972E8F
S11302A0A82EB92E08C049845A846B847C848D841A
S11302B09E84AF84B888BF92AF929F928F927F92B0
S11302C06F925F924F923F922F92A7E2B2E0BF9358
S11302D0AF937ED2242435243F922F92AAECB2E02D
S11302E0BF93AF9375D20FB6F894DEBF0FBECDBFE8
S11302F03FEF2316310408F080CF13C0212C312C9A
S113030010C01F921F9289E192E09F938F9360D255
S11303100F900F900F900F90F110F0CF212C312CF3
S113032057CFC10160960FB6F894DEBF0FBECDBFA4
S1130330DF91CF911F910F91FF90EF90DF90CF90BD
S1130340BF90AF909F908F907F906F905F904F90F1
S11303503F902F9008952F923F924F925F926F9209
S11303607F928F929F92AF92BF92CF92DF92EF9241
S1130370FF920F931F93CF93DF93CDB7DEB7C85C83
S1130380D1090FB6F894DEBF0FBECDBFE82EF92E0B
S1130390062F172F19821A821B821C82FE013596A2
S11303A080E6DF011D928A95E9F77F936F932EE42F
S11303B032E03F932F930CD26E2C7F2C802E912E03
S11303C00F900F900F900F90312CA12CB12C00E0C6
S11303D010E00F2EFAE5CF2EF2E0DF2EF02D0F2ED7
S11303E0F0E6EF2EF2E0FF2EF02D0F2EFFE64F2E5B
S11303F0F2E05F2EF02D212C43C01F930F93DF9268
S1130400CF92E6D1F30181913F018170330C382AF8
S11304101F923F921F928F93FF92EF92D9D10F5F59
S11304201F4FC801877099270FB6F894DEBF0FBE1F
S1130430CDBF892B29F5BF92AF921F923F925F9255
S11304404F92C6D10F900F900F900F900F900F9076
S11304503FEF3316A9F081E0A816B10431F4A0E40B
S11304603A1619F082E892E0CBD1E1E0F0E0EC0F2B
S1130470FD1FEA0DFB1D3082BFEFAB1ABB0A322C05
S11304800815190509F0B9CFAE014F5F5F4F9E0102
S11304902B593F4F80E090E0DA0107C0FA016191E7
S11304A0AF01F90161939F010196FD0101900020C4
S11304B0E9F73197BF016A1B7B0B8617970770F327
S11304C021E047E651E0CE018B599F4F2BDE8C0192
S11304D0FE01EA0DFB1D1082EFEFFFEFEC0FFD1F95
S11304E0EA0DFB1D10821F938F938EE892E09F9379
S11304F08F936ED10F900F900F900F90012B31F4CA
S11305008FEF89838FE992E07BD104C019828AEA54
S113051092E076D1CE010196C853DF4F0FB6F8941E
S1130520DEBF0FBECDBFDF91CF911F910F91FF9022
S1130530EF90DF90CF90BF90AF909F908F907F907F
S11305406F905F904F903F902F900895E8E2F3E012
S113055088E496E01192E817F907E1F7109248064B
S1130560D7D080E092E090934C0680934B0681E0D4
S11305708F9384EF8F938AEB92E09F938F9328D18C
S11305802098E8E6F0E0808181608083EBE6F0E08B
S113059080818160808378940F900F900F900F90EA
S11305A0512CE12CF12C412C0F2EFEEC8F2EF2E07D
S11305B09F2EF02D0F2EF8E2AF2EF3E0BF2EF02D7C
S11305C0CDE5D2E00F2EF8E02F2EF3E03F2EF02DF4
S11305D06AC08FEC97E00197F1F700C0000083B187
S11305E08170F701E85DFC4F8083811161C05394F1
S11305F067019FEFC91AD90AEFE6F7E13197F1F7DE
S113060000C00000C60187709927892B09F04AC0F1
S1130610F7E0F51508F046C09F928F92D9D08DE986
S113062092E0EED00F900F901C141D040CF44CC0FB
S11306301AC0F80181918F011F928F93DF93CF939A
S1130640C7D09FEF691A790AC301877099270F9061
S11306500F900F900F90892B19F480E290E0CBD08B
S11306606E147F0431F7B601C50175DE8C01009765
S113067089F0FC0180818F3F19F086EF92E0C0D0B1
S11306801F930F933F922F92A3D00F900F900F9030
S11306900F9003C08CE193E0B3D040924806789465
S11306A0C12CD12C7601809148068130E1F791CF9D
S11306B06701FFEFCF1ADF0A8FE697E10197F1F7A1
S11306C000C00000542CEECFF50180811F928F935F
S11306D0DF93CF937DD009E213E09FEFE91AF90A83
S11306E00F900F900F900F9066246394712CB8CFE5
S11306F01F920F920FB60F9211248F9381E0809373
S11307004806F8948F910F900FBE0F901F90189584
S11307101092C5001092C400E1ECF0E08081886082
S11307208083E2ECF0E08081866080830895CF933B
S1130730C82F8A3011F48DE0FADFE0ECF0E090810C
S113074095FFFDCFC093C60080E090E0CF9108955F
S11307500F93083090F0982F872F762F652F542F02
S1130760432F322F22270850F4CF220F331F441F68
S1130770551F661F771F881F991F0A95B2F70F919F
S1130780089597FB10F8169400080F93083098F01A
S11307900850232F342F452F562F672F782F892F5A
S11307A0902DF4CF059497958795779567955795F0
S11307B04795379527950A95AAF70F9108952A1515
S11307C03B054C055D056E057F058007910708957F
S11307D0CF93DF93CDB7DEB7AE014A5F5F4FFA0127
S11307E061917191AF0180914B0690914C0638D084
S11307F0DF91CF91089560914B0670914C0634C2FD
S11308000F931F93CF93DF93E0914B06F0914C0627
S1130810238121FF1BC08C01D0E0C0E0F80181914D
S11308208F0160914B0670914C06DB011896ED9197
S1130830FC911997882331F01995892B79F3DFEF0F
S1130840CFEFECCF8AE01995892B19F08FEF9FEF4A
S113085002C08D2F9C2FDF91CF911F910F9108958E
S11308602F923F924F925F926F927F928F929F92BC
S1130870AF92BF92CF92DF92EF92FF920F931F93AA
S1130880CF93DF93CDB7DEB72C970FB6F894DEBFC6
S11308900FBECDBF7C016B018A01FC011782168259
S11308A0838181FFB0C1CE0101964C01F701938190
S11308B0F60193FD859193FF81916F01882309F4DB
S11308C09EC1853239F493FD859193FF81916F0127
S11308D0853221F4B70190E0C7D1E8CF512C312CF7
S11308E020E02032A0F48B3269F030F4803259F0E9
S11308F0833269F420612CC08D3239F0803339F4AD
S1130900216026C02260246023C0286021C027FD06
S113091027C030ED380F3A3078F426FF06C0FAE0ED
S11309205F9E300D1124532E13C08AE0389E300D83
S11309301124332E20620CC08E3221F426FD5FC1B7
S1130940206406C08C3611F4206802C0883641F455
S1130950F60193FD859193FF81916F018111C1CFC0
S1130960982F9F7D9554933028F40C5F1F4FFFE31D
S1130970F9830DC0833631F0833771F0833509F084
S113098057C021C0F801808189830E5F1F4F442422
S11309904394512C540114C03801F2E06F0E711CC1
S11309A0F801A080B18026FF03C0652D70E002C06D
S11309B06FEF7FEFC5012C874CD12C0183012C856F
S11309C02F77222E16C03801F2E06F0E711CF80149
S11309D0A080B18026FF03C0652D70E002C06FEFD8
S11309E07FEFC5012C872AD12C012C852068222E6B
S11309F0830123FC19C0832D90E048165906A0F406
S1130A00B70180E290E030D13A94F5CFF50127FCAC
S1130A10859127FE81915F01B70190E025D13110C6
S1130A203A94F1E04F1A51084114510479F7DEC0A9
S1130A30843611F0893631F5F80127FF07C060814B
S1130A407181828193810C5F1F4F08C06081718125
S1130A50072E000C880B990B0E5F1F4F2F76722EFA
S1130A6097FF09C090958095709561957F4F8F4F42
S1130A709F4F2068722E2AE030E0A4012DD1A82EC9
S1130A80A81843C0853729F42F7EB22E2AE030E01F
S1130A9025C0F22FF97FBF2E8F36C1F018F48835A8
S1130AA079F0ADC0803719F0883721F0A8C02F2F16
S1130AB02061B22EB4FE0DC08B2D8460B82E09C007
S1130AC024FF0AC09F2F9660B92E06C028E030E0AC
S1130AD005C020E130E002C020E132E0F801B7FEB9
S1130AE007C060817181828193810C5F1F4F06C0B2
S1130AF06081718180E090E00E5F1F4FA401ECD013
S1130B00A82EA818FB2DFF777F2E76FE0BC0372D5D
S1130B103E7FA51450F474FE0AC072FC08C0372D41
S1130B203E7E05C0BA2C372D03C0BA2C01C0B52CAB
S1130B3034FF0DC0FE01EA0DF11D8081803311F4F4
S1130B40397E09C032FF06C0B394B39404C0832F26
S1130B50867809F0B39433FD12C030FF06C05A2CD6
S1130B60B31418F4530C5B18B32CB31460F4B7012A
S1130B7080E290E03C8778D0B3943C85F6CFB31400
S1130B8010F43B1801C0312C34FF11C0B70180E3CD
S1130B9090E03C8769D03C8532FF16C031FD03C02C
S1130BA088E790E002C088E590E0B7010CC0832F8D
S1130BB0867851F031FF02C08BE201C080E237FD3C
S1130BC08DE2B70190E050D0A51430F4B70180E372
S1130BD090E04AD05A94F8CFAA94F401EA0DF11D9A
S1130BE08081B70190E040D0A110F6CF332009F402
S1130BF05DCEB70180E290E037D03A94F7CFF701A9
S1130C008681978102C08FEF9FEF2C960FB6F894E0
S1130C10DEBF0FBECDBFDF91CF911F910F91FF902B
S1130C20EF90DF90CF90BF90AF909F908F907F9088
S1130C306F905F904F903F902F900895FC01059026
S1130C40615070400110D8F7809590958E0F9F1FCA
S1130C500895FC016150704001900110D8F780950F
S1130C6090958E0F9F1F08950F931F93CF93DF933B
S1130C70FB01238121FD03C08FEF9FEF28C022FFDA
S1130C8016C046815781248135814217530744F4A5
S1130C90A081B1819D012F5F3F4F318320838C93CD
S1130CA0268137812F5F3F4F3783268310C0EB01A6
S1130CB0092F182F0084F185E02D1995892BE1F671
S1130CC08E819F8101969F838E83812F902FDF9148
S1130CD0CF911F910F910895FA01AA27283051F15D
S1130CE0203181F1E8946F936E7F6E5F7F4F8F4F59
S1130CF09F4FAF4FB1E03ED0B4E03CD0670F781FB8
S1130D00891F9A1FA11D680F791F8A1F911DA11D9C
S1130D106A0F711D811D911DA11D20D009F46894D5
S1130D203F912AE0269F11243019305D3193DEF67D
S1130D30CF010895462F4770405D4193B3E00FD033
S1130D40C9F7F6CF462F4F70405D4A3318F0495D1E
S1130D5031FD4052419302D0A9F7EACFB4E0A69501
S1130D609795879577956795BA95C9F70097610523
S1130D70710508959B01AC010A2E06945795479579
S1130D8037952795BA95C9F7620F731F841F951F6E
S10B0D90A01D0895F894FFCFA3
S1130D980000000200000000970300000000446106
S1130DA874613A2025692C20000A616C6C446174D2
S1130DB8613A2025750A0025695E25693D000A43C4
S1130DC86865636B73756D3A2025690A000A646166
S1130DD874614C656E6774683A2025690A006C650D
S1130DE86E6774683A2025690A000A693A25690019
S1130DF82062697473256920746D7025692C000A52
S1130E08636861722025630A546F74616C202569D4
S1130E180A004E6F7420666F72206D650A000A0A14
S1130E28436865636B73756D3A2025690A0A004E39
S1130E386F206572726F72732E004572726F722022
S1130E4864657465637465642E00537461727420F8
S1130E5862617564726174653A2025690A000A53EF
S1130E68746F702042797465206465746563746571
S1130E78642C2073746F707065642072656365698F
S1130E8876696E672E004572726F722064657465A8
S1130E98637465642E2E2E005265636569766564F5
S1130EA820646174613A2025730A0A004E6F742025
S10B0EB8666F72206D650000F5
S9030000FC
