S010000052656365697665722E73726563DF
S11300000C9434000C9451000C9451000C944C0347
S11300100C9451000C9451000C9451000C94510018
S11300200C9451000C9451000C9451000C94510008
S11300300C9451000C9451000C9451000C945100F8
S11300400C9451000C9451000C9451000C945100E8
S11300500C9451000C9451000C9451000C945100D8
S11300600C9451000C94510011241FBECFEFD8E022
S1130070DEBFCDBF12E0A0E0B1E0E2E8FDE002C0E7
S113008005900D92AE31B107D9F725E0AEE1B2E0AB
S113009001C01D92A534B207E1F70E9476020C94C8
S11300A0BF060C9400002F923F924F925F926F9282
S11300B07F928F929F92AF92BF92CF92DF92EF92F4
S11300C0FF920F931F93CF93DF93CDB7DEB7609763
S11300D00FB6F894DEBF0FBECDBF3C018B012A01E1
S11300E0F22E1F936F9382E491E09F938F930E946B
S11300F0BD030F900F900F900F90101611060CF087
S1130100CAC04301600E711E212C312C0EE011E097
S11301105401D4018D914D011F928F931F930F931E
S11301200E94BD03322C2224F5018081282A0F90DD
S11301300F900F900F908614970451F73F922F92CF
S113014089E191E09F938F930E94BD030F900F90DC
S11301500F900F90F11002C0322C2224920140E043
S113016050E060E070E0CB0149863A874B875C87BA
S11301706D877E878F87988B3FEF2316310408F4B1
S11301809BC0A10160E070E080E090E0DC01298286
S11301905A836B837C838D839E83AF83B887298541
S11301A03A854B855C856D857E858F859889A98088
S11301B0BA80C12CD12CE12CF12C00E010E00E947B
S11301C0B403C8F5822E932E442E752E662E572E18
S11301D0F82FE92F282D392D442D572D662D752DF7
S11301E08F2F9E2F01E00E947D03822E932E442E9A
S11301F0752E662E572EF82FE92FA980BA80CB8052
S1130200DC80ED80FE800F8118850E94B40310F31A
S1130210572D8F2F9E2F282D392D662D752D01E0FA
S11302200E949803422E532E642E752E862E972EEE
S1130230A82EB92E08C049845A846B847C848D848A
S11302409E84AF84B888BF92AF929F928F927F9220
S11302506F925F924F923F922F92A7E2B1E0BF93C9
S1130260AF930E94BD03242435243F922F92AEEB1A
S1130270B1E0BF93AF930E94BD030FB6F894DEBF05
S11302800FBECDBF3FEF2316310408F07ACF14C060
S1130290212C312C11C01F921F9289E191E09F9370
S11302A08F930E94BD030F900F900F900F90F11049
S11302B0EFCF212C312C50CFC10160960FB6F894AA
S11302C0DEBF0FBECDBFDF91CF911F910F91FF9085
S11302D0EF90DF90CF90BF90AF909F908F907F90E2
S11302E06F905F904F903F902F9008952F923F9280
S11302F04F925F926F927F928F929F92AF92BF9232
S1130300CF92DF92EF92FF920F931F93CF93DF93DD
S1130310CDB7DEB7C85CD1090FB6F894DEBF0FBE07
S1130320CDBFE82EF92E062F172F19821A821B82B1
S11303301C82FE01359680E6DF011D928A95E9F75D
S11303407F936F932EE431E03F932F930E94BD037C
S11303506E2C7F2C802E912E0F900F900F900F906B
S1130360312CA12CB12C00E010E00F2EFAE5CF2E99
S1130370F1E0DF2EF02D0F2EF0E6EF2EF1E0FF2E50
S1130380F02D0F2EFFE64F2EF1E05F2EF02D212CE5
S11303904DC01F930F93DF92CF920E94BD03F301D0
S11303A081913F018170330C382A1F923F921F9232
S11303B08F93FF92EF920E94BD030F5F1F4FC801FE
S11303C0877099270FB6F894DEBF0FBECDBF892B77
S11303D069F5BF92AF921F923F925F924F920E9433
S11303E0BD030F900F900F900F900F900F903FEF61
S11303F03316E1F081E0A816B10469F4A2E03A16DC
S113040051F0AE014F5F5F4F9E012B593F4F80E08B
S113041090E0DA0117C0E1E0F0E0EC0FFD1FEA0D17
S1130420FB1D3082BFEFAB1ABB0A322C081519052D
S113043009F0AFCFE6CFFA016191AF01F901619301
S11304409F010196FD0101900020E9F73197BF015A
S11304506A1B7B0B8617970770F321E047E651E090
S1130460CE018B599F4F0E9453008C01FE01EA0D6F
S1130470FB1D1082EFEFFFEFEC0FFD1FEA0DFB1DDC
S113048010821F938F9382E891E09F938F930E9431
S1130490BD030F900F900F900F90012B29F483E967
S11304A091E00E94DA0306C08FEF89838EE991E020
S11304B00E94DA03CE010196C853DF4F0FB6F894B9
S11304C0DEBF0FBECDBFDF91CF911F910F91FF9083
S11304D0EF90DF90CF90BF90AF909F908F907F90E0
S11304E06F905F904F903F902F900895EEE1F2E06F
S11304F08EE395E01192E817F907E1F710923E05B3
S11305000E945C0380E091E0909342058093410552
S113051081E08F9384EF8F938EEA91E09F938F9382
S11305200E94BD032098E8E6F0E08081816080832A
S1130530EBE6F0E080818160808378940F900F90E7
S11305400F900F90512CE12CF12C412C0F2EFEE139
S1130550AF2EF2E0BF2EF02DCDE5D1E00F2EFFE15E
S11305602F2EF2E03F2EF02D0F2EFEEF8F2EF1E016
S11305709F2EF02D6CC08FEC97E00197F1F700C02F
S1130580000083B18170F701E25EFD4F8083811129
S113059063C0539467019FEFC91AD90AEFE6F7E1E4
S11305A03197F1F700C00000C60187709927892BA5
S11305B009F04CC0F7E0F51508F048C082EC91E072
S11305C00E94DA031C141D040CF452C01CC0F80170
S11305D081918F011F928F93DF93CF930E94BD036C
S11305E09FEF691A790AC301877099270F900F90BA
S11305F00F900F90892B21F480E290E00E94D303A6
S11306006E147F0421F7B601C5010E9476018C01A6
S1130610009799F0FC0180818F3F21F08CEE91E0EE
S11306200E94DA031F930F939F928F920E94BD033F
S11306300F900F900F900F9004C082E192E00E94FF
S1130640DA0340923E057894C12CD12C7601809136
S11306503E058130E1F78FCF6701FFEFCF1ADF0A44
S11306608FE697E10197F1F700C00000542CEECF1C
S1130670F50180811F928F93DF93CF930E94BD0376
S113068081019FEFE91AF90A0F900F900F900F90D4
S113069066246394712CB4CF1F920F920FB60F92FD
S11306A011248F9381E080933E05F8948F910F90ED
S11306B00FBE0F901F9018951092C5001092C400A1
S11306C0E1ECF0E0808188608083E2ECF0E08081FE
S11306D0866080830895CF93C82F8A3019F48DE003
S11306E00E946B03E0ECF0E0908195FFFDCFC09396
S11306F0C60080E090E0CF9108950F93083090F009
S1130700982F872F762F652F542F432F322F222790
S11307100850F4CF220F331F441F551F661F771F45
S1130720881F991F0A95B2F70F91089597FB10F847
S1130730169400080F93083098F00850232F342F94
S1130740452F562F672F782F892F902DF4CF05949E
S113075097958795779567955795479537952795F5
S11307600A95AAF70F9108952A153B054C055D05D6
S11307706E057F05800791070895A0E0B0E0E3ECE3
S1130780F3E00C949806AE014B5F5F4FFA01619160
S11307907191AF0180914105909142050E940A0434
S11307A0E2E00C94B40660914105709142050E9408
S11307B0F20508950F931F93CF93DF93E0914105C2
S11307C0F0914205238121FF1BC08C01D0E0C0E0E1
S11307D0F80181918F016091410570914205DB011F
S11307E01896ED91FC911997882331F00995892B7E
S11307F079F3DFEFCFEFECCF8AE00995892B19F07D
S11308008FEF9FEF02C08D2F9C2FDF91CF911F910F
S11308100F910895ACE0B0E0E0E1F4E00C948806B8
S11308207C016B018A01FC0117821682838181FF9E
S1130830BDC1CE0101964C01F7019381F60193FDF0
S1130840859193FF81916F01882309F4ABC18532AF
S113085039F493FD859193FF81916F01853229F4D9
S1130860B70190E00E94F205E7CF512C312C20E033
S11308702032A0F48B3269F030F4803259F08332A4
S113088069F420612CC08D3239F0803339F4216051
S113089026C02260246023C0286021C027FD27C011
S11308A030ED380F3A3078F426FF06C0FAE05F9E48
S11308B0300D1124532E13C08AE0389E300D1124BC
S11308C0332E20620CC08E3221F426FD6BC12064CD
S11308D006C08C3611F4206802C0883641F4F60153
S11308E093FD859193FF81916F018111C1CF982F61
S11308F09F7D9554933028F40C5F1F4FFFE3F983D9
S11309000DC0833631F0833771F0833509F05BC055
S113091022C0F801808189830E5F1F4F44244394D1
S1130920512C540115C03801F2E06F0E711CF8010E
S1130930A080B18026FF03C0652D70E002C06FEF78
S11309407FEFC5012C870E94E7052C0183012C85CC
S11309502F77222E17C03801F2E06F0E711CF801B8
S1130960A080B18026FF03C0652D70E002C06FEF48
S11309707FEFC5012C870E94DC052C012C852068A3
S1130980222E830123FC1BC0832D90E048165906B8
S1130990B0F4B70180E290E00E94F2053A94F4CFFB
S11309A0F50127FC859127FE81915F01B70190E055
S11309B00E94F20531103A94F1E04F1A51084114A3
S11309C0510471F7E5C0843611F0893639F5F80120
S11309D027FF07C060817181828193810C5F1F4F63
S11309E008C060817181072E000C880B990B0E5F83
S11309F01F4F2F76722E97FF09C0909580957095A2
S1130A0061957F4F8F4F9F4F2068722E2AE030E010
S1130A10A4010E942A06A82EA81844C0853729F4E8
S1130A202F7EB22E2AE030E025C0F22FF97FBF2EB0
S1130A308F36C1F018F4883579F0B4C0803719F0D6
S1130A40883721F0AFC02F2F2061B22EB4FE0DC025
S1130A508B2D8460B82E09C024FF0AC09F2F966096
S1130A60B92E06C028E030E005C020E130E002C025
S1130A7020E132E0F801B7FE07C060817181828114
S1130A8093810C5F1F4F06C06081718180E090E00C
S1130A900E5F1F4FA4010E942A06A82EA818FB2D42
S1130AA0FF777F2E76FE0BC0372D3E7FA51450F4C2
S1130AB074FE0AC072FC08C0372D3E7E05C0BA2CF5
S1130AC0372D03C0BA2C01C0B52C34FF0DC0FE0174
S1130AD0EA0DF11D8081803311F4397E09C032FFA3
S1130AE006C0B394B39404C0832F867809F0B394FA
S1130AF033FD13C030FF06C05A2CB31418F4530C42
S1130B005B18B32CB31468F4B70180E290E03C871F
S1130B100E94F205B3943C85F5CFB31410F43B184E
S1130B2001C0312C34FF12C0B70180E390E03C8750
S1130B300E94F2053C8532FF17C031FD03C088E7EF
S1130B4090E002C088E590E0B7010CC0832F86785E
S1130B5059F031FF02C08BE201C080E237FD8DE223
S1130B60B70190E00E94F205A51438F4B70180E3C0
S1130B7090E00E94F2055A94F7CFAA94F401EA0D8A
S1130B80F11D8081B70190E00E94F205A110F5CF1C
S1130B90332009F451CEB70180E290E00E94F205BF
S1130BA03A94F6CFF7018681978102C08FEF9FEFC9
S1130BB02C96E2E10C94A406FC010590615070406F
S1130BC00110D8F7809590958E0F9F1F0895FC0112
S1130BD06150704001900110D8F7809590958E0F68
S1130BE09F1F08950F931F93CF93DF93FB012381DE
S1130BF021FD03C08FEF9FEF28C022FF16C046815E
S1130C005781248135814217530744F4A081B1816F
S1130C109D012F5F3F4F318320838C932681378141
S1130C202F5F3F4F3783268310C0EB01092F182F06
S1130C300084F185E02D0995892BE1F68E819F8151
S1130C4001969F838E83812F902FDF91CF911F91E7
S1130C500F910895FA01AA27283051F1203181F12A
S1130C60E8946F936E7F6E5F7F4F8F4F9F4FAF4FB0
S1130C70B1E03ED0B4E03CD0670F781F891F9A1FC3
S1130C80A11D680F791F8A1F911DA11D6A0F711D77
S1130C90811D911DA11D20D009F468943F912AE083
S1130CA0269F11243019305D3193DEF6CF0108956B
S1130CB0462F4770405D4193B3E00FD0C9F7F6CF9C
S1130CC0462F4F70405D4A3318F0495D31FD405264
S1130CD0419302D0A9F7EACFB4E0A69597958795FA
S1130CE077956795BA95C9F70097610571050895D9
S1130CF09B01AC010A2E0694579547953795279585
S1130D00BA95C9F7620F731F841F951FA01D08951C
S1130D102F923F924F925F926F927F928F929F9207
S1130D20AF92BF92CF92DF92EF92FF920F931F93F5
S1130D30CF93DF93CDB7DEB7CA1BDB0B0FB6F894A6
S1130D40DEBF0FBECDBF09942A88398848885F84E6
S1130D506E847D848C849B84AA84B984C884DF8057
S1130D60EE80FD800C811B81AA81B981CE0FD11D3B
S1130D700FB6F894DEBF0FBECDBFED010895F89411
S1050D80FFCF9F
S1130D8200000002000000006B0300000000446148
S1130D9274613A2025692C20000A616C6C446174E8
S1130DA2613A2025750A0025695E25693D000A43DA
S1130DB26865636B73756D3A2025690A000A64617C
S1130DC274614C656E6774683A2025690A006C6523
S1130DD26E6774683A2025690A000A693A2569002F
S1130DE22062697473256920746D7025692C000A68
S1130DF2636861722025630A546F74616C202569EB
S1130E020A000A0A436865636B73756D3A202569A3
S1130E120A0A004E6F206572726F72732E00457259
S1130E22726F722064657465637465642E00537412
S1130E326172742062617564726174653A20256915
S1130E420A000A0A53746F7020427974652064653B
S1130E527465637465642C2073746F7070656420A8
S1130E62726563656976696E672E0A004572726FF0
S1130E72722064657465637465642E2E2E00526557
S1130E8263656976656420646174613A2025730A36
S1110E920A004E6F7420666F72206D650000BA
S9030000FC
