S01300005472616E736D69747465722E7372656374
S11300000C9475000C9492000C9492000C94920041
S11300100C9492000C9492000C9492000C94920014
S11300200C9492000C9492000C9492000C94920004
S11300300C9492000C9492000C9492000C949200F4
S11300400C9492000C9492000C9492000C949200E4
S11300500C9492000C9492000C9492000C949200D4
S11300600C9492000C94920008000000BE92244963
S1130070123EABAAAA2ABECDCCCC4C3E00000080D6
S1130080BEABAAAAAA3E00000000BF000000803F49
S11300900000000000084178D3BB4387D1133D1909
S11300A00E3CC3BD4282AD2B3E68EC8276BED98F36
S11300B0E1A93E4C80EFFFBE01C4FF7F3F0000007A
S11300C0000007634236B79BD8A71A39685618AEA2
S11300D0BAAB558C1D3CB7CC5763BD6DEDFD753E79
S11300E0F6177231BF000000803F11241FBECFEF0E
S11300F0D8E0DEBFCDBF12E0A0E0B1E0E6EEF8E16B
S113010002C005900D92AE3AB107D9F722E0AEEAEB
S1130110B2E001C01D92A73BB207E1F70E94F303CE
S11301200C94710C0C9400002F923F924F925F92AA
S11301306F927F928F929F92AF92BF92CF92DF92F3
S1130140EF92FF920F931F93CF93DF93CDB7DEB758
S113015060970FB6F894DEBF0FBECDBF3C018B0194
S11301602A01F22E1F936F9386EA91E09F938F9357
S11301700E949F090F900F900F900F901016110678
S11301800CF0CAC04301600E711E212C312C02E711
S113019011E05401D4018D914D011F928F931F934F
S11301A00F930E949F09322C2224F5018081282A72
S11301B00F900F900F900F908614970451F73F9271
S11301C02F928DE791E09F938F930E949F090F9048
S11301D00F900F900F90F11002C0322C2224920144
S11301E040E050E060E070E0CB0149863A874B87FD
S11301F05C876D877E878F87988B3FEF231631044A
S113020008F49BC0A10160E070E080E090E0DC01B4
S113021029825A836B837C838D839E83AF83B887C3
S113022029853A854B855C856D857E858F85988982
S1130230A980BA80C12CD12CE12CF12C00E010E073
S11302400E949609C8F5822E932E442E752E662E92
S1130250572EF82FE92F282D392D442D572D662D93
S1130260752D8F2F9E2F01E00E945F09822E932E01
S1130270442E752E662E572EF82FE92FA980BA80AA
S1130280CB80DC80ED80FE800F8118850E9496096A
S113029010F3572D8F2F9E2F282D392D662D752D58
S11302A001E00E947A09422E532E642E752E862E6A
S11302B0972EA82EB92E08C049845A846B847C8456
S11302C08D849E84AF84B888BF92AF929F928F92A0
S11302D07F926F925F924F923F922F92ABE8B1E080
S11302E0BF93AF930E949F09242435243F922F92F9
S11302F0AAE7B2E0BF93AF930E949F090FB6F894A8
S1130300DEBF0FBECDBF3FEF2316310408F07ACF16
S113031014C0212C312C11C01F921F928DE791E043
S11303209F938F930E949F090F900F900F900F90AF
S1130330F110EFCF212C312C50CFC10160960FB6B4
S1130340F894DEBF0FBECDBFDF91CF911F910F9107
S1130350FF90EF90DF90CF90BF90AF909F908F90E1
S11303607F906F905F904F903F902F9008955F9291
S11303706F927F928F929F92AF92BF92CF92DF92B1
S1130380EF92FF920F931F93CF93DF93CDB7DEB716
S1130390C458D3400FB6F894DEBF0FBECDBF8C0156
S11303A0FE0131969E01275F3F4F81E08193E21762
S11303B0F307E1F781E089871A861B861C861D8670
S11303C01E861F86188A862F8170898B61FB882779
S11303D080F98A8B62FB882780F98B8B63FB8827E3
S11303E080F98C8B64FB882780F98D8B65FB8827CB
S11303F080F98E8B66FB882780F98F8B88E190E0EB
S11304009093AF028093AE02661F6627661F688FC3
S113041068019E012F5D3C4FD80180E090E005C04B
S11304204D91F90141939F010196F801019000203B
S1130430E9F73197BF01601B710B8617970780F3AB
S113044020E047E651E0CE018F5D9C4F0E9494006E
S11304504C019F928F9382E991E09F938F930E9426
S11304609F090F900F900F900F90A12CB12C6894BE
S1130470552453F80F2EF5EBEF2EF1E0FF2EF02D5F
S11304802EC0F60161906F01752C2091AE0230915F
S1130490AF02E1E0F0E0EC0FFD1FE20FF31F862D49
S11304A0881F8827881F8083660C2F5F3F4F3093F7
S11304B0AF022093AE021F928F93FF92EF920E949D
S11304C09F097A940F900F900F900F907110DDCFC9
S11304D080E290E00E94B509FFEFAF1ABF0AF8016D
S11304E001900020E9F73197E01BF10BAE16BF062F
S11304F040F24091AE025091AF02E1E0F0E0EC0F27
S1130500FD1FE40FF51F9A01285F3F4F81E090E043
S11305108C0F9D1F280F391F87FA882780F9819334
S1130520880C991CE217F307B9F7CA010896E1E0B1
S1130530F0E0EC0FFD1FE80FF91F089621E030E012
S11305402C0F3D1F820F931F1192E817F907E1F753
S1130550405F5F4F5093AF024093AE025F934F935F
S113056081EA91E09F938F930E949F090F900F90CF
S11305700F900F90CE010196CC57DC4F0FB6F89434
S1130580DEBF0FBECDBFDF91CF911F910F91FF90C2
S1130590EF90DF90CF90BF90AF909F908F907F901F
S11305A06F905F90089595B181E0982795B9EFE336
S11305B0FFE13197F1F700C0000095B1892785B9B3
S11305C08FE39FE10197F1F700C0000008952091A7
S11305D0AE023091AF0212161306C4F4E82FF92FBD
S11305E080E090E02191211102C0289801C0289A4E
S11305F0AFE3BFE11197F1F700C00000019620912D
S1130600AE023091AF028217930764F308954F92BC
S11306105F926F927F928F929F92AF92BF92CF928E
S1130620DF92EF92FF920F931F93CF93DF9300D04B
S1130630CDB7DEB7A62EB72E082F192F9F938F9311
S11306407F936F9386E092E09F938F930E949F091C
S11306506A2D7B2D802F912F2FE034E040E050E075
S11306600E943D09CA01B9010E9447060E942D0754
S113067026EA3BE944E550E40E9485070E9484068B
S11306800E9418066B017C01665F7F4F8F4F9F4F5E
S11306900E9447069B01AC0160E070E080E090E4BA
S11306A00E94F20720E030EE41E055E40E94850705
S11306B02B013C016A2D7B2D802F912F0E94470630
S11306C09B01AC01C301B2010E94A6059B01AC01D0
S11306D060E070E080E095E40E9439050E944208E1
S11306E00E9418064B015C01BF92AF929F926F93D8
S11306F0FF92EF92DF92CF9286E192E09F938F93E5
S11307000E949F098601102F00271295107FC401B3
S1130710880F991F880F991F082B192B0260C70196
S1130720B6010E9447069B01AC0160E070E080E0E6
S113073090E40E94F2070E9442080E9418060E9458
S113074047066B017C01C501B4010E94470620E005
S113075030E040E85AE30E9485079B01AC0160E069
S113076070E080E090E40E9439059B01AC0160E0F8
S113077070EE81E095E40E94A6059B01AC01C701DF
S1130780B6010E9485070E9418069F938F937F935A
S11307906F9388E292E09F938F930E949F0919833D
S11307A00A838091B00242E050E0BE016F5F7F4F48
S11307B0880F0E94EA040FB6F894DEBF0FBECDBFC7
S11307C00F900F90DF91CF911F910F91FF90EF90B9
S11307D0DF90CF90BF90AF909F908F907F906F905D
S11307E05F904F900895CF93DF93CDB7DEB7C45693
S11307F0D1090FB6F894DEBF0FBECDBF209A84B1E5
S1130800836284B92D9A2FEF89E698E121508040C4
S11308109040E1F700C000002D980E94180580E088
S113082091E09093B4028093B3020E94AF04289A9B
S1130830299817E11093B00268EC7FEA80E090E019
S11308400E940703299A28981093B00268ED76ED68
S113085080E090E00E9407032D9AAFEFB9E628E10B
S1130860A150B0402040E1F700C000002D988FEF68
S113087099E6A8E181509040A040E1F700C0000053
S11308802D9ABFEF29E688E1B15020408040E1F77E
S113089000C000002D9885E0EEE0F1E08E010F5FCE
S11308A01F4FD80101900D928A95E1F7FE0136960B
S11308B08FE5DF011D928A95E9F781E08F9384EF3C
S11308C08F931F930F938EE392E09F938F930E94D5
S11308D09F0962E0C8010E94B7017C010091AE0249
S11308E01091AF02000F111F1F9282E08F9380E7D7
S11308F092E09F938F930E949F091F930F932EE77B
S113090032E03F932F930E949F098091AF028F930F
S11309108091AE028F932EE932E03F932F930E9491
S11309209F092898BFEF23ED80E3B1502040804019
S1130930E1F700C00000C7010E94E7020FB6F89477
S1130940DEBF0FBECDBF0E94D302BFEF27EA81E610
S1130950B15020408040E1F700C00000F4CF88E4AB
S11309608093B8000895ECEBF0E0108294EA908351
S113097090819923ECF79091B900987F9830A1F475
S11309808093BB0084E88093BC00ECEBF0E08081B2
S11309908823ECF79091B900987F983139F081E081
S11309A0903429F480E0089581E0089580E008956A
S11309B08093BB0084E88093BC00ECEBF0E0808182
S11309C08823ECF79091B900987F81E0983209F47C
S11309D080E00895CF92DF92FF920F931F93CF93FD
S11309E0DF936B018A010E94B304F82E811112C0B7
S11309F00115110559F0E6010C0D1D1D89910E9488
S1130A00D80481110AC0C017D107C1F784E98093C3
S1130A10BC0005C0FF24F39402C0FF24F3948F2D7F
S1130A20DF91CF911F910F91FF90DF90CF900895A8
S1130A301092C5001092C400E1ECF0E0808188605F
S1130A408083E2ECF0E08081866080830895CF9318
S1130A50C82F8A3019F48DE00E942705E0ECF0E0FD
S1130A60908195FFFDCFC093C60080E090E0CF91C8
S1130A7008955058BB27AA270E9451050C94DB0601
S1130A800E94CD0638F00E94D40620F039F49F3F2E
S1130A9019F426F40C94CA060EF4E095E7FB0C94C2
S1130AA09B06E92F0E94EC0658F3BA1762077307F6
S1130AB08407950720F079F4A6F50C9426070EF424
S1130AC0E0950B2EBA2FA02D0B01B90190010C015A
S1130AD0CA01A0011124FF27591B99F0593F50F472
S1130AE0503E68F11A16F040A22F232F342F4427CA
S1130AF0585FF3CF469537952795A795F0405395C2
S1130B00C9F77EF41F16BA0B620B730B840BBAF091
S1130B109150A1F0FF0FBB1F661F771F881FC2F7FC
S1130B200EC0BA0F621F731F841F48F48795779510
S1130B306795B795F7959E3F08F0B0CF9395880FCA
S1130B4008F09927EE0F9795879508950E94BA05A6
S1130B500C94DB060E94D40658F00E94CD0640F0A7
S1130B6029F45F3F29F00C949B0651110C9427073C
S1130B700C94CA060E94EC0668F39923B1F355233A
S1130B8091F3951B550BBB27AA276217730784079C
S1130B9038F09F5F5F4F220F331F441FAA1FA9F332
S1130BA035D00E2E3AF0E0E832D091505040E69520
S1130BB0001CCAF72BD0FE2F29D0660F771F881F81
S1130BC0BB1F261737074807AB07B0E809F0BB0B74
S1130BD0802DBF01FF2793585F4F3AF09E3F510588
S1130BE078F00C949B060C9427075F3FE4F3983E3F
S1130BF0D4F3869577956795B795F7959F5FC9F771
S1130C00880F911D9695879597F90895E1E0660FF1
S1130C10771F881FBB1F621773078407BA0720F06A
S1130C20621B730B840BBA0BEE1F88F7E0950895D3
S1130C300E94F40688F09F5798F0B92F9927B7516E
S1130C40B0F0E1F0660F771F881F991F1AF0BA956C
S1130C50C9F714C0B13091F00E942607B1E008959D
S1130C600C942607672F782F8827B85F39F0B93F8F
S1130C70CCF3869577956795B395D9F73EF490951F
S1130C808095709561957F4F8F4F9F4F0895E8949D
S1130C9009C097FB3EF490958095709561957F4FC0
S1130CA08F4F9F4F9923A9F0F92F96E9BB2793956E
S1130CB0F695879577956795B795F111F8CFFAF47E
S1130CC0BB0F11F460FF1BC06F5F7F4F8F4F9F4FAF
S1130CD016C0882311F096E911C0772321F09EE80D
S1130CE0872F762F05C0662371F096E8862F70E073
S1130CF060E02AF09A95660F771F881FDAF7880F4D
S1130D009695879597F908950E940E0790F09F375E
S1130D1048F4911116F00C94270760E070E080E825
S1130D209FEB089526F41B16611D711D811D0C9403
S1130D30A1060C94BC0697F99F6780E870E060E018
S1130D400895882371F4772321F09850872B762F08
S1130D5007C0662311F499270DC09051862B70E0CB
S1130D6060E02AF09A95660F771F881FDAF7880FDC
S1130D709695879597F908959F3F31F0915020F407
S1130D80879577956795B795880F911D9695879563
S1130D9097F908959FEF80EC089500240A9416169D
S1130DA0170618060906089500240A941216130655
S1130DB0140605060895092E0394000C11F48823E3
S1130DC052F0BB0F40F4BF2B11F460FF04C06F5FFF
S1130DD07F4F8F4F9F4F089557FD9058440F551FD5
S1130DE059F05F3F71F04795880F97FB991F61F0A9
S1130DF09F3F79F087950895121613061406551F20
S1130E00F2CF4695F1DF08C0161617061806991F8B
S1130E10F1CF869571056105089408950E94F40642
S1130E20A0F0BEE7B91788F4BB279F3860F4161604
S1130E30B11D672F782F8827985FF7CF8695779510
S1130E406795B11D93959639C8F30895E894BB2727
S1130E5066277727CB0197F908950E943D0729ED6E
S1130E603BE54EED5EE30C94850716F00C94BC064E
S1130E700C94CA0668940C949B060E94F406A8F38A
S1130E809923C1F3AEF3DF93CF931F930F93FF9294
S1130E90C92FDD2788232AF02197660F771F881F23
S1130EA0DAF720E030E040E85FEB9FE3883920F098
S1130EB0803E38F021968F770E943A05E8E6F0E00C
S1130EC004C00E943A05E5E9F0E00E94A0088B0105
S1130ED0BE01EC01FB2E6F5771097595771F880BC6
S1130EE0990B0E94490628E132E741E35FE30E943F
S1130EF09807AF2D9801AE01FF900F911F91CF91EC
S1130F00DF910E9451050C94DB060E9498070C9413
S1130F10DB060E94CD0638F00E94D40620F095230B
S1130F2011F00C949B060C94CA0611240C94270708
S1130F300E94EC0670F3959FC1F3950F50E0551F86
S1130F40629FF001729FBB27F00DB11D639FAA271A
S1130F50F00DB11DAA1F649F6627B00DA11D661F69
S1130F60829F2227B00DA11D621F739FB00DA11D8A
S1130F70621F839FA00D611D221F749F3327A00D44
S1130F80611D231F849F600D211D822F762F6A2FE0
S1130F9011249F5750409AF0F1F088234AF0EE0F45
S1130FA0FF1FBB1F661F771F881F91505040A9F772
S1130FB09E3F510580F00C949B060C9427075F3FDD
S1130FC0E4F3983ED4F3869577956795B795F795AE
S1130FD0E7959F5FC1F7FE2B880F911D9695879526
S1130FE097F90895FA01EE0FFF1F30962105310598
S1130FF0A1F16115710561F48038BFE39B0749F1E4
S113100068949038810561F08038BFEF9B0741F008
S113101099234AF5FF3FE1053105210519F1E894CB
S11310200894E795D901AA2329F4AB2FBE2FF85FC2
S1131030D0F310C0FF5F70F4A695E0F7F73950F0D5
S113104019F0FF3A38F49F779F930DD00F9007FC67
S11310509058089546F00C94CA0660E070E080E869
S11310609FE308954FE79F775F934F933F932F93A9
S11310700E943D072F913F914F915F910E948507F8
S11310800C946E080E94F406E8F09E37E8F0963956
S1131090B8F49E3848F4672F782F8827985FF9CFE3
S11310A086957795679593959539D0F3B62FB1705A
S11310B06B0F711D811D20F4879577956795939526
S11310C00C94A1060C94BC060C94270729F416F082
S11310D00C949B060C9426070C94CA060E94F406F2
S11310E0A8F39638A0F707F80F92E8942BE33AEAAE
S11310F048EB5FE70E949B070F920F920F924DB748
S11311005EB70F920E940909E2ECF0E00E94A00889
S11311104F915F91EF91FF91E595EE1FFF1F49F00D
S1131120FE57E0684427EE0F441FFA95E1F7419516
S1131130550B0E94D3080F9007FE0C94C70808951E
S1131140DF93CF931F930F93FF92EF92DF927B0174
S11311508C01689406C0DA2EEF010E949807FE0104
S1131160E894A5912591359145915591A6F3EF0108
S11311700E945105FE019701A801DA9469F7DF90F6
S1131180EF90FF900F911F91CF91DF9108959B01F4
S1131190AC0160E070E080E89FE30C94A6050C9439
S11311A09B060C94BC060E94F406D8F39923C9F359
S11311B0940F511DA3F39150504094F059F088239B
S11311C032F0660F771F881F91505040C1F79E3F41
S11311D051052CF7880F911D9695879597F90895D9
S11311E05F3FACF0983E9CF0BB278695779567955A
S11311F0B79508F4B1609395C1F7BB0F58F711F494
S113120060FFE8CF6F5F7F4F8F4F9F4FE3CF0C940A
S11312102707FA01DC01AA0FBB1F9B01AC01BF57D2
S113122028F4222733274427507820C0B75190F45C
S1131230AB2F0024469537952795011CA395D2F32F
S1131240002071F0220F331F441FB395DAF30ED040
S11312500C94390561307105A0E88A07B94630F469
S11312609B01AC016627772788279078309621F078
S113127020833183428353830895A1E21A2EAA1B4B
S1131280BB1BFD010DC0AA1FBB1FEE1FFF1FA21732
S1131290B307E407F50720F0A21BB30BE40BF50B2F
S11312A0661F771F881F991F1A9469F760957095B8
S11312B0809590959B01AC01BD01CF0108950F93DA
S11312C0083090F0982F872F762F652F542F432FB7
S11312D0322F22270850F4CF220F331F441F551FEB
S11312E0661F771F881F991F0A95B2F70F910895FB
S11312F097FB10F8169400080F93083098F00850E4
S1131300232F342F452F562F672F782F892F902D79
S1131310F4CF059497958795779567955795479555
S1131320379527950A95AAF70F9108952A153B0535
S11313304C055D056E057F05800791070895A0E0C3
S1131340B0E0E5EAF9E00C944A0CAE014B5F5F4F64
S1131350FA0161917191AF018091B3029091B4024D
S11313600E94BC09E2E00C94660C6091B302709197
S1131370B4020E94A40B0895ACE0B0E0E2ECF9E002
S11313800C943A0C7C016B018A01FC0117821682D1
S1131390838181FFBDC1CE0101964C01F701938188
S11313A0F60193FD859193FF81916F01882309F4E0
S11313B0ABC1853239F493FD859193FF81916F011F
S11313C0853229F4B70190E00E94A40BE7CF512C99
S11313D0312C20E02032A0F48B3269F030F48032DA
S11313E059F0833269F420612CC08D3239F0803396
S11313F039F4216026C02260246023C0286021C003
S113140027FD27C030ED380F3A3078F426FF06C0A8
S1131410FAE05F9E300D1124532E13C08AE0389EEB
S1131420300D1124332E20620CC08E3221F426FD9F
S11314306BC1206406C08C3611F4206802C0883663
S113144041F4F60193FD859193FF81916F01811120
S1131450C1CF982F9F7D9554933028F40C5F1F4F74
S1131460FFE3F9830DC0833631F0833771F08335A0
S113147009F05BC022C0F801808189830E5F1F4F91
S113148044244394512C540115C03801F2E06F0EEA
S1131490711CF801A080B18026FF03C0652D70E0A7
S11314A002C06FEF7FEFC5012C870E94990B2C01BE
S11314B083012C852F77222E17C03801F2E06F0E9E
S11314C0711CF801A080B18026FF03C0652D70E077
S11314D002C06FEF7FEFC5012C870E948E0B2C0199
S11314E02C852068222E830123FC1BC0832D90E0D1
S11314F048165906B0F4B70180E290E00E94A40BAC
S11315003A94F4CFF50127FC859127FE81915F0180
S1131510B70190E00E94A40B31103A94F1E04F1A05
S113152051084114510471F7E5C0843611F089362D
S113153039F5F80127FF07C06081718182819381A9
S11315400C5F1F4F08C060817181072E000C880B4F
S1131550990B0E5F1F4F2F76722E97FF09C090953F
S11315608095709561957F4F8F4F9F4F2068722EA5
S11315702AE030E0A4010E94DC0BA82EA81844C085
S1131580853729F42F7EB22E2AE030E025C0F22FD1
S1131590F97FBF2E8F36C1F018F4883579F0B4C0C6
S11315A0803719F0883721F0AFC02F2F2061B22E79
S11315B0B4FE0DC08B2D8460B82E09C024FF0AC070
S11315C09F2F9660B92E06C028E030E005C020E1C8
S11315D030E002C020E132E0F801B7FE07C06081CC
S11315E07181828193810C5F1F4F06C0608171817C
S11315F080E090E00E5F1F4FA4010E94DC0BA82E38
S1131600A818FB2DFF777F2E76FE0BC0372D3E7F6B
S1131610A51450F474FE0AC072FC08C0372D3E7E37
S113162005C0BA2C372D03C0BA2C01C0B52C34FF29
S11316300DC0FE01EA0DF11D8081803311F4397E65
S113164009C032FF06C0B394B39404C0832F8678D4
S113165009F0B39433FD13C030FF06C05A2CB31401
S113166018F4530C5B18B32CB31468F4B70180E27C
S113167090E03C870E94A40BB3943C85F5CFB3144F
S113168010F43B1801C0312C34FF12C0B70180E3C1
S113169090E03C870E94A40B3C8532FF17C031FDCB
S11316A003C088E790E002C088E590E0B7010CC071
S11316B0832F867859F031FF02C08BE201C080E2AB
S11316C037FD8DE2B70190E00E94A40BA51438F415
S11316D0B70180E390E00E94A40B5A94F7CFAA9438
S11316E0F401EA0DF11D8081B70190E00E94A40B82
S11316F0A110F5CF332009F451CEB70180E290E078
S11317000E94A40B3A94F6CFF7018681978102C018
S11317108FEF9FEF2C96E2E10C94560CFC010590A0
S1131720615070400110D8F7809590958E0F9F1FDF
S11317300895FC016150704001900110D8F7809524
S113174090958E0F9F1F08950F931F93CF93DF9350
S1131750FB01238121FD03C08FEF9FEF28C022FFEF
S113176016C046815781248135814217530744F4BA
S1131770A081B1819D012F5F3F4F318320838C93E2
S1131780268137812F5F3F4F3783268310C0EB01BB
S1131790092F182F0084F185E02D0995892BE1F696
S11317A08E819F8101969F838E83812F902FDF915D
S11317B0CF911F910F910895FA01AA27283051F172
S11317C0203181F1E8946F936E7F6E5F7F4F8F4F6E
S11317D09F4FAF4FB1E03ED0B4E03CD0670F781FCD
S11317E0891F9A1FA11D680F791F8A1F911DA11DB2
S11317F06A0F711D811D911DA11D20D009F46894EB
S11318003F912AE0269F11243019305D3193DEF692
S1131810CF010895462F4770405D4193B3E00FD048
S1131820C9F7F6CF462F4F70405D4A3318F0495D33
S113183031FD4052419302D0A9F7EACFB4E0A69516
S11318409795879577956795BA95C9F70097610538
S1131850710508959B01AC010A2E0694579547958E
S113186037952795BA95C9F7620F731F841F951F83
S1131870A01D08952F923F924F925F926F927F9294
S11318808F929F92AF92BF92CF92DF92EF92FF928C
S11318900F931F93CF93DF93CDB7DEB7CA1BDB0B38
S11318A00FB6F894DEBF0FBECDBF09942A883988DD
S11318B048885F846E847D848C849B84AA84B984E4
S11318C0C884DF80EE80FD800C811B81AA81B981F0
S11318D0CE0FD11D0FB6F894DEBF0FBECDBFED0104
S10918E00895F894FFCF07
S11318E60000000200000000270500000000546507
S11318F673740000000000000000000000000000F7
S113190600000000000000000000000000000000CD
S113191600000000000000000000000000000000BD
S113192600000000000000000000000000000000AD
S1131936000000000000000000000000000000009D
S1131946000000000000000000000000000000008D
S11319560000446174613A2025692C20000A616CF8
S11319666C446174613A2025750A0025695E25690F
S11319763D000A436865636B73756D3A2025690AF1
S1131986000A646174614C656E6774683A2025695F
S11319960A000A693A256900206269747325692078
S11319A6746D7025692C000A636861722025630AC8
S11319B6546F74616C2025690A000A0A43686563DA
S11319C66B73756D3A2025690A0A004E6F2065729D
S11319D6726F72732E004572726F7220646574653D
S11319E6637465642E004672657175656E63793A33
S11319F620256C750A004F435420256C750A444112
S1131A06433A20256C750A00457861637420667232
S1131A16657175656E63793A20256C750A000A0A44
S1131A260A0A535441525420434F444520574954BB
S1131A3648205448495320494E5055543A2025735A
S1131A460A42415544524154453A2025690A0A003E
S1131A564261756474696D653A2025690A005469A2
S1131A666D65206E656564656420746F2073656EAC
S1131A766420646174613A2025696D730A006461A7
S1111A8674616C656E6774683A2025690A0005
S9030000FC
